{
  "_format": "hh-sol-artifact-1",
  "contractName": "TestGatewayContract",
  "sourceName": "contracts/ethereum/TestContracts/TestGatewayContract.sol",
  "abi": [
    {
      "inputs": [
        {
          "internalType": "contract IStarknetCore",
          "name": "_starknetCore",
          "type": "address"
        }
      ],
      "stateMutability": "nonpayable",
      "type": "constructor"
    },
    {
      "inputs": [
        {
          "internalType": "uint256",
          "name": "userAddress",
          "type": "uint256"
        },
        {
          "internalType": "uint256",
          "name": "L2StorageProverAddress",
          "type": "uint256"
        }
      ],
      "name": "receiveFromStorageProver",
      "outputs": [],
      "stateMutability": "nonpayable",
      "type": "function"
    },
    {
      "inputs": [
        {
          "internalType": "uint256",
          "name": "",
          "type": "uint256"
        }
      ],
      "name": "withdrawAllowances",
      "outputs": [
        {
          "internalType": "bool",
          "name": "",
          "type": "bool"
        }
      ],
      "stateMutability": "view",
      "type": "function"
    }
  ],
  "bytecode": "0x608060405234801561001057600080fd5b50604051610611380380610611833981810160405281019061003291906100ed565b806000806101000a81548173ffffffffffffffffffffffffffffffffffffffff021916908373ffffffffffffffffffffffffffffffffffffffff1602179055505061011a565b600080fd5b600073ffffffffffffffffffffffffffffffffffffffff82169050919050565b60006100a88261007d565b9050919050565b60006100ba8261009d565b9050919050565b6100ca816100af565b81146100d557600080fd5b50565b6000815190506100e7816100c1565b92915050565b60006020828403121561010357610102610078565b5b6000610111848285016100d8565b91505092915050565b6104e8806101296000396000f3fe608060405234801561001057600080fd5b50600436106100365760003560e01c806339a25a721461003b578063dfa089231461006b575b600080fd5b61005560048036038101906100509190610251565b610087565b6040516100629190610299565b60405180910390f35b610085600480360381019061008091906102b4565b6100a7565b005b60016020528060005260406000206000915054906101000a900460ff1681565b6000600267ffffffffffffffff8111156100c4576100c36102f4565b5b6040519080825280602002602001820160405280156100f25781602001602082028036833780820191505090505b50905060018160008151811061010b5761010a610323565b5b602002602001018181525050828160018151811061012c5761012b610323565b5b60200260200101818152505060008054906101000a900473ffffffffffffffffffffffffffffffffffffffff1673ffffffffffffffffffffffffffffffffffffffff16632c9dd5c083836040518363ffffffff1660e01b815260040161019392919061041f565b602060405180830381600087803b1580156101ad57600080fd5b505af11580156101c1573d6000803e3d6000fd5b505050506040513d601f19601f820116820180604052508101906101e59190610485565b50600180600085815260200190815260200160002060006101000a81548160ff021916908315150217905550505050565b600080fd5b6000819050919050565b61022e8161021b565b811461023957600080fd5b50565b60008135905061024b81610225565b92915050565b60006020828403121561026757610266610216565b5b60006102758482850161023c565b91505092915050565b60008115159050919050565b6102938161027e565b82525050565b60006020820190506102ae600083018461028a565b92915050565b600080604083850312156102cb576102ca610216565b5b60006102d98582860161023c565b92505060206102ea8582860161023c565b9150509250929050565b7f4e487b7100000000000000000000000000000000000000000000000000000000600052604160045260246000fd5b7f4e487b7100000000000000000000000000000000000000000000000000000000600052603260045260246000fd5b61035b8161021b565b82525050565b600081519050919050565b600082825260208201905092915050565b6000819050602082019050919050565b6103968161021b565b82525050565b60006103a8838361038d565b60208301905092915050565b6000602082019050919050565b60006103cc82610361565b6103d6818561036c565b93506103e18361037d565b8060005b838110156104125781516103f9888261039c565b9750610404836103b4565b9250506001810190506103e5565b5085935050505092915050565b60006040820190506104346000830185610352565b818103602083015261044681846103c1565b90509392505050565b6000819050919050565b6104628161044f565b811461046d57600080fd5b50565b60008151905061047f81610459565b92915050565b60006020828403121561049b5761049a610216565b5b60006104a984828501610470565b9150509291505056fea2646970667358221220341429632d96e7dbc9c3a290a7f1b5143b14207a926167943262a8f1c2c0db4564736f6c63430008090033",
  "linkReferences": {},
  "deployedLinkReferences": {}
}