{
  "_format": "hh-sol-artifact-1",
  "contractName": "GatewayContract",
  "sourceName": "contracts/ethereum/GatewayContract.sol",
  "abi": [
    {
      "inputs": [
        {
          "internalType": "contract IStarknetCore",
          "name": "_starknetCore",
          "type": "address"
        }
      ],
      "stateMutability": "nonpayable",
      "type": "constructor"
    },
    {
      "anonymous": false,
      "inputs": [
        {
          "indexed": false,
          "internalType": "address",
          "name": "EOA",
          "type": "address"
        },
        {
          "indexed": false,
          "internalType": "address",
          "name": "recoveryContract",
          "type": "address"
        },
        {
          "indexed": false,
          "internalType": "uint256",
          "name": "creationDate",
          "type": "uint256"
        },
        {
          "indexed": false,
          "internalType": "uint256",
          "name": "minBlocks",
          "type": "uint256"
        }
      ],
      "name": "NewRecoveryContract",
      "type": "event"
    },
    {
      "inputs": [
        {
          "internalType": "address",
          "name": "recipient",
          "type": "address"
        },
        {
          "internalType": "uint256",
          "name": "minBlocks",
          "type": "uint256"
        }
      ],
      "name": "deployRecoveryContract",
      "outputs": [],
      "stateMutability": "nonpayable",
      "type": "function"
    },
    {
      "inputs": [
        {
          "internalType": "address",
          "name": "",
          "type": "address"
        }
      ],
      "name": "eoaToRecoveryContract",
      "outputs": [
        {
          "internalType": "address",
          "name": "",
          "type": "address"
        }
      ],
      "stateMutability": "view",
      "type": "function"
    },
    {
      "inputs": [],
      "name": "l2StorageProverAddress",
      "outputs": [
        {
          "internalType": "uint256",
          "name": "",
          "type": "uint256"
        }
      ],
      "stateMutability": "view",
      "type": "function"
    },
    {
      "inputs": [],
      "name": "owner",
      "outputs": [
        {
          "internalType": "address",
          "name": "",
          "type": "address"
        }
      ],
      "stateMutability": "view",
      "type": "function"
    },
    {
      "inputs": [],
      "name": "proverAddressIsSet",
      "outputs": [
        {
          "internalType": "bool",
          "name": "",
          "type": "bool"
        }
      ],
      "stateMutability": "view",
      "type": "function"
    },
    {
      "inputs": [
        {
          "internalType": "uint256",
          "name": "userAddress",
          "type": "uint256"
        },
        {
          "internalType": "uint256",
          "name": "blocks",
          "type": "uint256"
        }
      ],
      "name": "receiveFromStorageProver",
      "outputs": [],
      "stateMutability": "nonpayable",
      "type": "function"
    },
    {
      "inputs": [
        {
          "internalType": "uint256",
          "name": "_l2StorageProverAddress",
          "type": "uint256"
        }
      ],
      "name": "setProverAddress",
      "outputs": [],
      "stateMutability": "nonpayable",
      "type": "function"
    }
  ],
  "bytecode": "0x60806040526000600360006101000a81548160ff02191690831515021790555034801561002b57600080fd5b5060405162001d1838038062001d18833981810160405281019061004f919061014b565b806000806101000a81548173ffffffffffffffffffffffffffffffffffffffff021916908373ffffffffffffffffffffffffffffffffffffffff16021790555033600160006101000a81548173ffffffffffffffffffffffffffffffffffffffff021916908373ffffffffffffffffffffffffffffffffffffffff16021790555050610178565b600080fd5b600073ffffffffffffffffffffffffffffffffffffffff82169050919050565b6000610106826100db565b9050919050565b6000610118826100fb565b9050919050565b6101288161010d565b811461013357600080fd5b50565b6000815190506101458161011f565b92915050565b600060208284031215610161576101606100d6565b5b600061016f84828501610136565b91505092915050565b611b9080620001886000396000f3fe60806040523480156200001157600080fd5b5060043610620000885760003560e01c80638da5cb5b11620000635780638da5cb5b14620000ef578063c4c251f31462000111578063dfa089231462000147578063eb8aef5914620001675762000088565b806329c877f3146200008d57806348ec4c2914620000af5780638c98c51614620000cf575b600080fd5b6200009762000189565b604051620000a6919062000708565b60405180910390f35b620000cd6004803603810190620000c79190620007c0565b6200018f565b005b620000ed6004803603810190620000e7919062000807565b62000365565b005b620000f96200041d565b6040516200010891906200084a565b60405180910390f35b6200012f600480360381019062000129919062000867565b62000443565b6040516200013e91906200084a565b60405180910390f35b6200016560048036038101906200015f919062000899565b62000476565b005b62000171620006cc565b604051620001809190620008fd565b60405180910390f35b60025481565b600073ffffffffffffffffffffffffffffffffffffffff16600460003373ffffffffffffffffffffffffffffffffffffffff1673ffffffffffffffffffffffffffffffffffffffff16815260200190815260200160002060009054906101000a900473ffffffffffffffffffffffffffffffffffffffff1673ffffffffffffffffffffffffffffffffffffffff161462000260576040517f08c379a000000000000000000000000000000000000000000000000000000000815260040162000257906200097b565b60405180910390fd5b6000828230336040516200027490620006df565b6200028394939291906200099d565b604051809103906000f080158015620002a0573d6000803e3d6000fd5b50905080600460003373ffffffffffffffffffffffffffffffffffffffff1673ffffffffffffffffffffffffffffffffffffffff16815260200190815260200160002060006101000a81548173ffffffffffffffffffffffffffffffffffffffff021916908373ffffffffffffffffffffffffffffffffffffffff1602179055507f63525507ae06268d2c3cb72b565afcee4097d00187f87cd6ee5ceadaf54063a733824285604051620003589493929190620009ea565b60405180910390a1505050565b600160009054906101000a900473ffffffffffffffffffffffffffffffffffffffff1673ffffffffffffffffffffffffffffffffffffffff163373ffffffffffffffffffffffffffffffffffffffff1614620003f8576040517f08c379a0000000000000000000000000000000000000000000000000000000008152600401620003ef9062000a87565b60405180910390fd5b806002819055506001600360006101000a81548160ff02191690831515021790555050565b600160009054906101000a900473ffffffffffffffffffffffffffffffffffffffff1681565b60046020528060005260406000206000915054906101000a900473ffffffffffffffffffffffffffffffffffffffff1681565b6000600267ffffffffffffffff81111562000496576200049562000aa9565b5b604051908082528060200260200182016040528015620004c55781602001602082028036833780820191505090505b5090508281600081518110620004e057620004df62000ad8565b5b602002602001018181525050818160018151811062000504576200050362000ad8565b5b60200260200101818152505060011515600360009054906101000a900460ff1615151462000537576200053662000b07565b5b60008054906101000a900473ffffffffffffffffffffffffffffffffffffffff1673ffffffffffffffffffffffffffffffffffffffff16632c9dd5c0600254836040518363ffffffff1660e01b81526004016200059692919062000c04565b602060405180830381600087803b158015620005b157600080fd5b505af1158015620005c6573d6000803e3d6000fd5b505050506040513d601f19601f82011682018060405250810190620005ec919062000c73565b5060008390506000600460008373ffffffffffffffffffffffffffffffffffffffff1673ffffffffffffffffffffffffffffffffffffffff16815260200190815260200160002060009054906101000a900473ffffffffffffffffffffffffffffffffffffffff1690508073ffffffffffffffffffffffffffffffffffffffff16636af39aa3856040518263ffffffff1660e01b815260040162000691919062000708565b600060405180830381600087803b158015620006ac57600080fd5b505af1158015620006c1573d6000803e3d6000fd5b505050505050505050565b600360009054906101000a900460ff1681565b610eb58062000ca683390190565b6000819050919050565b6200070281620006ed565b82525050565b60006020820190506200071f6000830184620006f7565b92915050565b600080fd5b600073ffffffffffffffffffffffffffffffffffffffff82169050919050565b600062000757826200072a565b9050919050565b62000769816200074a565b81146200077557600080fd5b50565b60008135905062000789816200075e565b92915050565b6200079a81620006ed565b8114620007a657600080fd5b50565b600081359050620007ba816200078f565b92915050565b60008060408385031215620007da57620007d962000725565b5b6000620007ea8582860162000778565b9250506020620007fd85828601620007a9565b9150509250929050565b60006020828403121562000820576200081f62000725565b5b60006200083084828501620007a9565b91505092915050565b62000844816200074a565b82525050565b600060208201905062000861600083018462000839565b92915050565b60006020828403121562000880576200087f62000725565b5b6000620008908482850162000778565b91505092915050565b60008060408385031215620008b357620008b262000725565b5b6000620008c385828601620007a9565b9250506020620008d685828601620007a9565b9150509250929050565b60008115159050919050565b620008f781620008e0565b82525050565b6000602082019050620009146000830184620008ec565b92915050565b600082825260208201905092915050565b7f5265636f7665727920636f6e7472616374206578697374730000000000000000600082015250565b6000620009636018836200091a565b915062000970826200092b565b602082019050919050565b60006020820190508181036000830152620009968162000954565b9050919050565b6000608082019050620009b4600083018762000839565b620009c36020830186620006f7565b620009d2604083018562000839565b620009e1606083018462000839565b95945050505050565b600060808201905062000a01600083018762000839565b62000a10602083018662000839565b62000a1f6040830185620006f7565b62000a2e6060830184620006f7565b95945050505050565b7f4f6e6c79206f776e657200000000000000000000000000000000000000000000600082015250565b600062000a6f600a836200091a565b915062000a7c8262000a37565b602082019050919050565b6000602082019050818103600083015262000aa28162000a60565b9050919050565b7f4e487b7100000000000000000000000000000000000000000000000000000000600052604160045260246000fd5b7f4e487b7100000000000000000000000000000000000000000000000000000000600052603260045260246000fd5b7f4e487b7100000000000000000000000000000000000000000000000000000000600052600160045260246000fd5b600081519050919050565b600082825260208201905092915050565b6000819050602082019050919050565b62000b6d81620006ed565b82525050565b600062000b81838362000b62565b60208301905092915050565b6000602082019050919050565b600062000ba78262000b36565b62000bb3818562000b41565b935062000bc08362000b52565b8060005b8381101562000bf757815162000bdb888262000b73565b975062000be88362000b8d565b92505060018101905062000bc4565b5085935050505092915050565b600060408201905062000c1b6000830185620006f7565b818103602083015262000c2f818462000b9a565b90509392505050565b6000819050919050565b62000c4d8162000c38565b811462000c5957600080fd5b50565b60008151905062000c6d8162000c42565b92915050565b60006020828403121562000c8c5762000c8b62000725565b5b600062000c9c8482850162000c5c565b9150509291505056fe60806040523480156200001157600080fd5b5060405162000eb538038062000eb58339818101604052810190620000379190620001ca565b836000806101000a81548173ffffffffffffffffffffffffffffffffffffffff021916908373ffffffffffffffffffffffffffffffffffffffff16021790555080600160006101000a81548173ffffffffffffffffffffffffffffffffffffffff021916908373ffffffffffffffffffffffffffffffffffffffff1602179055508260038190555081600260006101000a81548173ffffffffffffffffffffffffffffffffffffffff021916908373ffffffffffffffffffffffffffffffffffffffff1602179055506000600460006101000a81548160ff021916908315150217905550505050506200023c565b600080fd5b600073ffffffffffffffffffffffffffffffffffffffff82169050919050565b600062000157826200012a565b9050919050565b62000169816200014a565b81146200017557600080fd5b50565b60008151905062000189816200015e565b92915050565b6000819050919050565b620001a4816200018f565b8114620001b057600080fd5b50565b600081519050620001c48162000199565b92915050565b60008060008060808587031215620001e757620001e662000125565b5b6000620001f78782880162000178565b94505060206200020a87828801620001b3565b93505060406200021d8782880162000178565b9250506060620002308782880162000178565b91505092959194509250565b610c69806200024c6000396000f3fe608060405234801561001057600080fd5b506004361061007d5760003560e01c80637dc5186f1161005b5780637dc5186f146100da578063eb0cde1d146100f8578063f36457db14610116578063ff21d1e5146101325761007d565b806322f3e2d41461008257806366d003ac146100a05780636af39aa3146100be575b600080fd5b61008a610150565b6040516100979190610638565b60405180910390f35b6100a8610163565b6040516100b59190610694565b60405180910390f35b6100d860048036038101906100d391906106ef565b610187565b005b6100e2610325565b6040516100ef9190610694565b60405180910390f35b61010061034b565b60405161010d9190610694565b60405180910390f35b610130600480360381019061012b91906107ad565b610371565b005b61013a610617565b604051610147919061081c565b60405180910390f35b600460009054906101000a900460ff1681565b60008054906101000a900473ffffffffffffffffffffffffffffffffffffffff1681565b600260009054906101000a900473ffffffffffffffffffffffffffffffffffffffff1673ffffffffffffffffffffffffffffffffffffffff163373ffffffffffffffffffffffffffffffffffffffff1614610217576040517f08c379a000000000000000000000000000000000000000000000000000000000815260040161020e90610894565b60405180910390fd5b600460009054906101000a900460ff1615610267576040517f08c379a000000000000000000000000000000000000000000000000000000000815260040161025e90610900565b60405180910390fd5b6003548110156102ac576040517f08c379a00000000000000000000000000000000000000000000000000000000081526004016102a39061096c565b60405180910390fd5b6001600460006101000a81548160ff0219169083151502179055507f8c0f791a552520d7b652c7f008af155a562ee6e9ce409bf539fbe0c18eef91603060008054906101000a900473ffffffffffffffffffffffffffffffffffffffff164260405161031a9392919061098c565b60405180910390a150565b600160009054906101000a900473ffffffffffffffffffffffffffffffffffffffff1681565b600260009054906101000a900473ffffffffffffffffffffffffffffffffffffffff1681565b60008054906101000a900473ffffffffffffffffffffffffffffffffffffffff1673ffffffffffffffffffffffffffffffffffffffff163373ffffffffffffffffffffffffffffffffffffffff16146103ff576040517f08c379a00000000000000000000000000000000000000000000000000000000081526004016103f690610a0f565b60405180910390fd5b60011515600460009054906101000a900460ff16151514610455576040517f08c379a000000000000000000000000000000000000000000000000000000000815260040161044c90610a7b565b60405180910390fd5b60005b8383905081101561061157600084848381811061047857610477610a9b565b5b905060200201602081019061048d9190610aca565b905060008173ffffffffffffffffffffffffffffffffffffffff1663dd62ed3e600160009054906101000a900473ffffffffffffffffffffffffffffffffffffffff16306040518363ffffffff1660e01b81526004016104ee929190610af7565b60206040518083038186803b15801561050657600080fd5b505afa15801561051a573d6000803e3d6000fd5b505050506040513d601f19601f8201168201806040525081019061053e9190610b35565b905060008111156105fc578173ffffffffffffffffffffffffffffffffffffffff166323b872dd600160009054906101000a900473ffffffffffffffffffffffffffffffffffffffff1686846040518463ffffffff1660e01b81526004016105a89392919061098c565b602060405180830381600087803b1580156105c257600080fd5b505af11580156105d6573d6000803e3d6000fd5b505050506040513d601f19601f820116820180604052508101906105fa9190610b8e565b505b5050808061060990610bea565b915050610458565b50505050565b60035481565b60008115159050919050565b6106328161061d565b82525050565b600060208201905061064d6000830184610629565b92915050565b600073ffffffffffffffffffffffffffffffffffffffff82169050919050565b600061067e82610653565b9050919050565b61068e81610673565b82525050565b60006020820190506106a96000830184610685565b92915050565b600080fd5b600080fd5b6000819050919050565b6106cc816106b9565b81146106d757600080fd5b50565b6000813590506106e9816106c3565b92915050565b600060208284031215610705576107046106af565b5b6000610713848285016106da565b91505092915050565b600080fd5b600080fd5b600080fd5b60008083601f8401126107415761074061071c565b5b8235905067ffffffffffffffff81111561075e5761075d610721565b5b60208301915083602082028301111561077a57610779610726565b5b9250929050565b61078a81610673565b811461079557600080fd5b50565b6000813590506107a781610781565b92915050565b6000806000604084860312156107c6576107c56106af565b5b600084013567ffffffffffffffff8111156107e4576107e36106b4565b5b6107f08682870161072b565b9350935050602061080386828701610798565b9150509250925092565b610816816106b9565b82525050565b6000602082019050610831600083018461080d565b92915050565b600082825260208201905092915050565b7f4e6f742067617465776179000000000000000000000000000000000000000000600082015250565b600061087e600b83610837565b915061088982610848565b602082019050919050565b600060208201905081810360008301526108ad81610871565b9050919050565b7f416c726561647920616374697665000000000000000000000000000000000000600082015250565b60006108ea600e83610837565b91506108f5826108b4565b602082019050919050565b60006020820190508181036000830152610919816108dd565b9050919050565b7f496e616374697669747920746f6f2073686f7274000000000000000000000000600082015250565b6000610956601483610837565b915061096182610920565b602082019050919050565b6000602082019050818103600083015261098581610949565b9050919050565b60006060820190506109a16000830186610685565b6109ae6020830185610685565b6109bb604083018461080d565b949350505050565b7f4f6e6c7920726563697069656e74000000000000000000000000000000000000600082015250565b60006109f9600e83610837565b9150610a04826109c3565b602082019050919050565b60006020820190508181036000830152610a28816109ec565b9050919050565b7f4e6f742061637469766500000000000000000000000000000000000000000000600082015250565b6000610a65600a83610837565b9150610a7082610a2f565b602082019050919050565b60006020820190508181036000830152610a9481610a58565b9050919050565b7f4e487b7100000000000000000000000000000000000000000000000000000000600052603260045260246000fd5b600060208284031215610ae057610adf6106af565b5b6000610aee84828501610798565b91505092915050565b6000604082019050610b0c6000830185610685565b610b196020830184610685565b9392505050565b600081519050610b2f816106c3565b92915050565b600060208284031215610b4b57610b4a6106af565b5b6000610b5984828501610b20565b91505092915050565b610b6b8161061d565b8114610b7657600080fd5b50565b600081519050610b8881610b62565b92915050565b600060208284031215610ba457610ba36106af565b5b6000610bb284828501610b79565b91505092915050565b7f4e487b7100000000000000000000000000000000000000000000000000000000600052601160045260246000fd5b6000610bf5826106b9565b91507fffffffffffffffffffffffffffffffffffffffffffffffffffffffffffffffff821415610c2857610c27610bbb565b5b60018201905091905056fea26469706673582212202db60c96081396b3dcbe294038595e879e1d0c035cc15ebf3367aa53b9c2fcf864736f6c63430008090033a264697066735822122055165fe5ac1490d17bbfc3c8c318c0149af0ec8dcf405e4c783899f0cf6d2f7f64736f6c63430008090033",
  "linkReferences": {},
  "deployedLinkReferences": {}
}