{
  "_format": "hh-sol-artifact-1",
  "contractName": "GatewayContract",
  "sourceName": "contracts/ethereum/GatewayContract.sol",
  "abi": [
    {
      "inputs": [
        {
          "internalType": "contract IStarknetCore",
          "name": "_starknetCore",
          "type": "address"
        }
      ],
      "stateMutability": "nonpayable",
      "type": "constructor"
    },
    {
      "anonymous": false,
      "inputs": [
        {
          "indexed": false,
          "internalType": "address",
          "name": "EOA",
          "type": "address"
        },
        {
          "indexed": false,
          "internalType": "address",
          "name": "recoveryContract",
          "type": "address"
        },
        {
          "indexed": false,
          "internalType": "uint256",
          "name": "creationDate",
          "type": "uint256"
        },
        {
          "indexed": false,
          "internalType": "uint256",
          "name": "minBlocks",
          "type": "uint256"
        }
      ],
      "name": "NewRecoveryContract",
      "type": "event"
    },
    {
      "inputs": [
        {
          "internalType": "address",
          "name": "recipient",
          "type": "address"
        },
        {
          "internalType": "uint256",
          "name": "minBlocks",
          "type": "uint256"
        }
      ],
      "name": "deployRecoveryContract",
      "outputs": [],
      "stateMutability": "nonpayable",
      "type": "function"
    },
    {
      "inputs": [
        {
          "internalType": "address",
          "name": "",
          "type": "address"
        }
      ],
      "name": "eoaToRecoveryContract",
      "outputs": [
        {
          "internalType": "address",
          "name": "",
          "type": "address"
        }
      ],
      "stateMutability": "view",
      "type": "function"
    },
    {
      "inputs": [],
      "name": "l2StorageProverAddress",
      "outputs": [
        {
          "internalType": "uint256",
          "name": "",
          "type": "uint256"
        }
      ],
      "stateMutability": "view",
      "type": "function"
    },
    {
      "inputs": [],
      "name": "owner",
      "outputs": [
        {
          "internalType": "address",
          "name": "",
          "type": "address"
        }
      ],
      "stateMutability": "view",
      "type": "function"
    },
    {
      "inputs": [],
      "name": "proverAddressIsSet",
      "outputs": [
        {
          "internalType": "bool",
          "name": "",
          "type": "bool"
        }
      ],
      "stateMutability": "view",
      "type": "function"
    },
    {
      "inputs": [
        {
          "internalType": "uint256",
          "name": "userAddress",
          "type": "uint256"
        },
        {
          "internalType": "uint256",
          "name": "blocks",
          "type": "uint256"
        }
      ],
      "name": "receiveFromStorageProver",
      "outputs": [],
      "stateMutability": "nonpayable",
      "type": "function"
    },
    {
      "inputs": [
        {
          "internalType": "uint256",
          "name": "_l2StorageProverAddress",
          "type": "uint256"
        }
      ],
      "name": "setProverAddress",
      "outputs": [],
      "stateMutability": "nonpayable",
      "type": "function"
    }
  ],
  "bytecode": "0x60806040526000600360006101000a81548160ff02191690831515021790555034801561002b57600080fd5b5060405162001c1e38038062001c1e833981810160405281019061004f919061014b565b806000806101000a81548173ffffffffffffffffffffffffffffffffffffffff021916908373ffffffffffffffffffffffffffffffffffffffff16021790555033600160006101000a81548173ffffffffffffffffffffffffffffffffffffffff021916908373ffffffffffffffffffffffffffffffffffffffff16021790555050610178565b600080fd5b600073ffffffffffffffffffffffffffffffffffffffff82169050919050565b6000610106826100db565b9050919050565b6000610118826100fb565b9050919050565b6101288161010d565b811461013357600080fd5b50565b6000815190506101458161011f565b92915050565b600060208284031215610161576101606100d6565b5b600061016f84828501610136565b91505092915050565b611a9680620001886000396000f3fe60806040523480156200001157600080fd5b5060043610620000885760003560e01c80638da5cb5b11620000635780638da5cb5b14620000ef578063c4c251f31462000111578063dfa089231462000147578063eb8aef5914620001675762000088565b806329c877f3146200008d57806348ec4c2914620000af5780638c98c51614620000cf575b600080fd5b6200009762000189565b604051620000a6919062000706565b60405180910390f35b620000cd6004803603810190620000c79190620007be565b6200018f565b005b620000ed6004803603810190620000e7919062000805565b62000363565b005b620000f96200041b565b60405162000108919062000848565b60405180910390f35b6200012f600480360381019062000129919062000865565b62000441565b6040516200013e919062000848565b60405180910390f35b6200016560048036038101906200015f919062000897565b62000474565b005b62000171620006ca565b604051620001809190620008fb565b60405180910390f35b60025481565b600073ffffffffffffffffffffffffffffffffffffffff16600460003373ffffffffffffffffffffffffffffffffffffffff1673ffffffffffffffffffffffffffffffffffffffff16815260200190815260200160002060009054906101000a900473ffffffffffffffffffffffffffffffffffffffff1673ffffffffffffffffffffffffffffffffffffffff161462000260576040517f08c379a0000000000000000000000000000000000000000000000000000000008152600401620002579062000979565b60405180910390fd5b60008282306040516200027390620006dd565b62000281939291906200099b565b604051809103906000f0801580156200029e573d6000803e3d6000fd5b50905080600460003373ffffffffffffffffffffffffffffffffffffffff1673ffffffffffffffffffffffffffffffffffffffff16815260200190815260200160002060006101000a81548173ffffffffffffffffffffffffffffffffffffffff021916908373ffffffffffffffffffffffffffffffffffffffff1602179055507f63525507ae06268d2c3cb72b565afcee4097d00187f87cd6ee5ceadaf54063a733824285604051620003569493929190620009d8565b60405180910390a1505050565b600160009054906101000a900473ffffffffffffffffffffffffffffffffffffffff1673ffffffffffffffffffffffffffffffffffffffff163373ffffffffffffffffffffffffffffffffffffffff1614620003f6576040517f08c379a0000000000000000000000000000000000000000000000000000000008152600401620003ed9062000a75565b60405180910390fd5b806002819055506001600360006101000a81548160ff02191690831515021790555050565b600160009054906101000a900473ffffffffffffffffffffffffffffffffffffffff1681565b60046020528060005260406000206000915054906101000a900473ffffffffffffffffffffffffffffffffffffffff1681565b6000600267ffffffffffffffff81111562000494576200049362000a97565b5b604051908082528060200260200182016040528015620004c35781602001602082028036833780820191505090505b5090508281600081518110620004de57620004dd62000ac6565b5b602002602001018181525050818160018151811062000502576200050162000ac6565b5b60200260200101818152505060011515600360009054906101000a900460ff1615151462000535576200053462000af5565b5b60008054906101000a900473ffffffffffffffffffffffffffffffffffffffff1673ffffffffffffffffffffffffffffffffffffffff16632c9dd5c0600254836040518363ffffffff1660e01b81526004016200059492919062000bf2565b602060405180830381600087803b158015620005af57600080fd5b505af1158015620005c4573d6000803e3d6000fd5b505050506040513d601f19601f82011682018060405250810190620005ea919062000c61565b5060008390506000600460008373ffffffffffffffffffffffffffffffffffffffff1673ffffffffffffffffffffffffffffffffffffffff16815260200190815260200160002060009054906101000a900473ffffffffffffffffffffffffffffffffffffffff1690508073ffffffffffffffffffffffffffffffffffffffff16636af39aa3856040518263ffffffff1660e01b81526004016200068f919062000706565b600060405180830381600087803b158015620006aa57600080fd5b505af1158015620006bf573d6000803e3d6000fd5b505050505050505050565b600360009054906101000a900460ff1681565b610dcd8062000c9483390190565b6000819050919050565b6200070081620006eb565b82525050565b60006020820190506200071d6000830184620006f5565b92915050565b600080fd5b600073ffffffffffffffffffffffffffffffffffffffff82169050919050565b6000620007558262000728565b9050919050565b620007678162000748565b81146200077357600080fd5b50565b60008135905062000787816200075c565b92915050565b6200079881620006eb565b8114620007a457600080fd5b50565b600081359050620007b8816200078d565b92915050565b60008060408385031215620007d857620007d762000723565b5b6000620007e88582860162000776565b9250506020620007fb85828601620007a7565b9150509250929050565b6000602082840312156200081e576200081d62000723565b5b60006200082e84828501620007a7565b91505092915050565b620008428162000748565b82525050565b60006020820190506200085f600083018462000837565b92915050565b6000602082840312156200087e576200087d62000723565b5b60006200088e8482850162000776565b91505092915050565b60008060408385031215620008b157620008b062000723565b5b6000620008c185828601620007a7565b9250506020620008d485828601620007a7565b9150509250929050565b60008115159050919050565b620008f581620008de565b82525050565b6000602082019050620009126000830184620008ea565b92915050565b600082825260208201905092915050565b7f5265636f7665727920636f6e7472616374206578697374730000000000000000600082015250565b60006200096160188362000918565b91506200096e8262000929565b602082019050919050565b60006020820190508181036000830152620009948162000952565b9050919050565b6000606082019050620009b2600083018662000837565b620009c16020830185620006f5565b620009d0604083018462000837565b949350505050565b6000608082019050620009ef600083018762000837565b620009fe602083018662000837565b62000a0d6040830185620006f5565b62000a1c6060830184620006f5565b95945050505050565b7f4f6e6c79206f776e657200000000000000000000000000000000000000000000600082015250565b600062000a5d600a8362000918565b915062000a6a8262000a25565b602082019050919050565b6000602082019050818103600083015262000a908162000a4e565b9050919050565b7f4e487b7100000000000000000000000000000000000000000000000000000000600052604160045260246000fd5b7f4e487b7100000000000000000000000000000000000000000000000000000000600052603260045260246000fd5b7f4e487b7100000000000000000000000000000000000000000000000000000000600052600160045260246000fd5b600081519050919050565b600082825260208201905092915050565b6000819050602082019050919050565b62000b5b81620006eb565b82525050565b600062000b6f838362000b50565b60208301905092915050565b6000602082019050919050565b600062000b958262000b24565b62000ba1818562000b2f565b935062000bae8362000b40565b8060005b8381101562000be557815162000bc9888262000b61565b975062000bd68362000b7b565b92505060018101905062000bb2565b5085935050505092915050565b600060408201905062000c096000830185620006f5565b818103602083015262000c1d818462000b88565b90509392505050565b6000819050919050565b62000c3b8162000c26565b811462000c4757600080fd5b50565b60008151905062000c5b8162000c30565b92915050565b60006020828403121562000c7a5762000c7962000723565b5b600062000c8a8482850162000c4a565b9150509291505056fe60806040523480156200001157600080fd5b5060405162000dcd38038062000dcd833981810160405281019062000037919062000188565b826000806101000a81548173ffffffffffffffffffffffffffffffffffffffff021916908373ffffffffffffffffffffffffffffffffffffffff1602179055508160028190555080600160006101000a81548173ffffffffffffffffffffffffffffffffffffffff021916908373ffffffffffffffffffffffffffffffffffffffff1602179055506000600360006101000a81548160ff021916908315150217905550505050620001e4565b600080fd5b600073ffffffffffffffffffffffffffffffffffffffff82169050919050565b60006200011582620000e8565b9050919050565b620001278162000108565b81146200013357600080fd5b50565b60008151905062000147816200011c565b92915050565b6000819050919050565b62000162816200014d565b81146200016e57600080fd5b50565b600081519050620001828162000157565b92915050565b600080600060608486031215620001a457620001a3620000e3565b5b6000620001b48682870162000136565b9350506020620001c78682870162000171565b9250506040620001da8682870162000136565b9150509250925092565b610bd980620001f46000396000f3fe608060405234801561001057600080fd5b50600436106100625760003560e01c806322f3e2d41461006757806366d003ac146100855780636af39aa3146100a3578063eb0cde1d146100bf578063f36457db146100dd578063ff21d1e5146100f9575b600080fd5b61006f610117565b60405161007c91906105a8565b60405180910390f35b61008d61012a565b60405161009a9190610604565b60405180910390f35b6100bd60048036038101906100b8919061065f565b61014e565b005b6100c76102ec565b6040516100d49190610604565b60405180910390f35b6100f760048036038101906100f2919061071d565b610312565b005b610101610587565b60405161010e919061078c565b60405180910390f35b600360009054906101000a900460ff1681565b60008054906101000a900473ffffffffffffffffffffffffffffffffffffffff1681565b600160009054906101000a900473ffffffffffffffffffffffffffffffffffffffff1673ffffffffffffffffffffffffffffffffffffffff163373ffffffffffffffffffffffffffffffffffffffff16146101de576040517f08c379a00000000000000000000000000000000000000000000000000000000081526004016101d590610804565b60405180910390fd5b600360009054906101000a900460ff161561022e576040517f08c379a000000000000000000000000000000000000000000000000000000000815260040161022590610870565b60405180910390fd5b600254811015610273576040517f08c379a000000000000000000000000000000000000000000000000000000000815260040161026a906108dc565b60405180910390fd5b6001600360006101000a81548160ff0219169083151502179055507f8c0f791a552520d7b652c7f008af155a562ee6e9ce409bf539fbe0c18eef91603060008054906101000a900473ffffffffffffffffffffffffffffffffffffffff16426040516102e1939291906108fc565b60405180910390a150565b600160009054906101000a900473ffffffffffffffffffffffffffffffffffffffff1681565b60008054906101000a900473ffffffffffffffffffffffffffffffffffffffff1673ffffffffffffffffffffffffffffffffffffffff163373ffffffffffffffffffffffffffffffffffffffff16146103a0576040517f08c379a00000000000000000000000000000000000000000000000000000000081526004016103979061097f565b60405180910390fd5b60011515600360009054906101000a900460ff161515146103f6576040517f08c379a00000000000000000000000000000000000000000000000000000000081526004016103ed906109eb565b60405180910390fd5b60005b8383905081101561058157600084848381811061041957610418610a0b565b5b905060200201602081019061042e9190610a3a565b73ffffffffffffffffffffffffffffffffffffffff166370a08231306040518263ffffffff1660e01b81526004016104669190610604565b60206040518083038186803b15801561047e57600080fd5b505afa158015610492573d6000803e3d6000fd5b505050506040513d601f19601f820116820180604052508101906104b69190610a7c565b90508484838181106104cb576104ca610a0b565b5b90506020020160208101906104e09190610a3a565b73ffffffffffffffffffffffffffffffffffffffff1663a9059cbb84836040518363ffffffff1660e01b815260040161051a929190610aa9565b602060405180830381600087803b15801561053457600080fd5b505af1158015610548573d6000803e3d6000fd5b505050506040513d601f19601f8201168201806040525081019061056c9190610afe565b5050808061057990610b5a565b9150506103f9565b50505050565b60025481565b60008115159050919050565b6105a28161058d565b82525050565b60006020820190506105bd6000830184610599565b92915050565b600073ffffffffffffffffffffffffffffffffffffffff82169050919050565b60006105ee826105c3565b9050919050565b6105fe816105e3565b82525050565b600060208201905061061960008301846105f5565b92915050565b600080fd5b600080fd5b6000819050919050565b61063c81610629565b811461064757600080fd5b50565b60008135905061065981610633565b92915050565b6000602082840312156106755761067461061f565b5b60006106838482850161064a565b91505092915050565b600080fd5b600080fd5b600080fd5b60008083601f8401126106b1576106b061068c565b5b8235905067ffffffffffffffff8111156106ce576106cd610691565b5b6020830191508360208202830111156106ea576106e9610696565b5b9250929050565b6106fa816105e3565b811461070557600080fd5b50565b600081359050610717816106f1565b92915050565b6000806000604084860312156107365761073561061f565b5b600084013567ffffffffffffffff81111561075457610753610624565b5b6107608682870161069b565b9350935050602061077386828701610708565b9150509250925092565b61078681610629565b82525050565b60006020820190506107a1600083018461077d565b92915050565b600082825260208201905092915050565b7f4e6f742067617465776179000000000000000000000000000000000000000000600082015250565b60006107ee600b836107a7565b91506107f9826107b8565b602082019050919050565b6000602082019050818103600083015261081d816107e1565b9050919050565b7f416c726561647920616374697665000000000000000000000000000000000000600082015250565b600061085a600e836107a7565b915061086582610824565b602082019050919050565b600060208201905081810360008301526108898161084d565b9050919050565b7f496e616374697669747920746f6f2073686f7274000000000000000000000000600082015250565b60006108c66014836107a7565b91506108d182610890565b602082019050919050565b600060208201905081810360008301526108f5816108b9565b9050919050565b600060608201905061091160008301866105f5565b61091e60208301856105f5565b61092b604083018461077d565b949350505050565b7f4f6e6c7920726563697069656e74000000000000000000000000000000000000600082015250565b6000610969600e836107a7565b915061097482610933565b602082019050919050565b600060208201905081810360008301526109988161095c565b9050919050565b7f4e6f742061637469766500000000000000000000000000000000000000000000600082015250565b60006109d5600a836107a7565b91506109e08261099f565b602082019050919050565b60006020820190508181036000830152610a04816109c8565b9050919050565b7f4e487b7100000000000000000000000000000000000000000000000000000000600052603260045260246000fd5b600060208284031215610a5057610a4f61061f565b5b6000610a5e84828501610708565b91505092915050565b600081519050610a7681610633565b92915050565b600060208284031215610a9257610a9161061f565b5b6000610aa084828501610a67565b91505092915050565b6000604082019050610abe60008301856105f5565b610acb602083018461077d565b9392505050565b610adb8161058d565b8114610ae657600080fd5b50565b600081519050610af881610ad2565b92915050565b600060208284031215610b1457610b1361061f565b5b6000610b2284828501610ae9565b91505092915050565b7f4e487b7100000000000000000000000000000000000000000000000000000000600052601160045260246000fd5b6000610b6582610629565b91507fffffffffffffffffffffffffffffffffffffffffffffffffffffffffffffffff821415610b9857610b97610b2b565b5b60018201905091905056fea2646970667358221220eb8a8b4fc574992b03b35d2735246bc527db1a50524864d2d756f80dcf1f1e6264736f6c63430008090033a26469706673582212204348aa210e83efe19c2bbb5ae8bcb9651f299375b1190423daadea360b70501964736f6c63430008090033",
  "linkReferences": {},
  "deployedLinkReferences": {}
}